:100000000C94C7190C94F8190C94F8190C94F8195D
:100010000C94F8190C94F8190C94F8190C94F8191C
:100020000C94F8190C94F8190C94F8190C94F8190C
:100030000C94F8190C94F8190C94F8190C94F819FC
:100040000C94F8190C94F8190C94F8190C94F819EC
:100050000C94F8190C94F8190C94F8190C942B4D75
:100060000C94F8190C944F500C9485500C94F8197A
:100070000C94F8190C94F8190C94F8190C94F819BC
:100080000C94F8190C94F8190C94F8190C94F819AC
:100090000C94F8190C94F8190C94F8190C94FD4B65
:1000A0000C94F8190C94F8190C94F8190C94F8198C
:1000B0000C94F8190C94F8190C94F8190C94F8197C
:1000C0000C94F8190C94F8190C94F8190C94F8196C
:1000D0000C94F8190C94F8190C94F8190C94F8195C
:1000E0000C94F819A21EBD1ED01EE31EF61E091F99
:1000F0001C1F2F1F421F4D1F581F631F881F931F58
:10010000AD1F2427422769277F277F277F27962730
:100110001E2824271E28B9271E28C727C727E427FB
:10012000E42769274A284A286927C7271E287F27E6
:10013000F2271E281E281E281E281E280C281E28CE
:100140001E28B728182A012BD02BDB2CDB2C6D2E78
:10015000C12F6635CE30BF322B33F436CD37A939B7
:10016000A939012B9C429C42012BA038AA3AEF2DC1
:10017000733B3E3C443E6B3DFD3E44409E41B2419C
:100180006631374E3A4E294E2D4E334E714E3E4E0D
:10019000424E484E4C4E504E564E5A4E5E4E714E4A
:1001A000644E684E6C4E05A84CCDB2D44EB938366C
:1001B000A9020C50B9918688083CA6AAAA2ABE00BA
:1001C0000000803F1010205F0000000000000000D1
:1001D000000000000000000000000000000000001F
:1001E00000000000000000000000000007000F8079
:1001F0000F800F800F800F800700070000000000B5
:10020000070007000700000000000E380E380E3807
:100210000E38063000000000000000000000000062
:10022000000000000000000000000C300C300C301A
:100230007FFE7FFE0C300C300C300C307FFE7FFEDA
:100240000C300C300C3000000000024002400FF86F
:100250001FF81A401A401FF00FF8025802581FF8F2
:100260001FF00240024000000000000000000E10DD
:100270000E300E7000E001C0038007000E700C709D
:100280000870000000000000000000000F0019804E
:10029000198019800F000F080F9819F818F018E04E
:1002A00019F00F9800000000000000000700070090
:1002B00007000E0000000000000000000000000029
:1002C00000000000000000000000000000F001C07D
:1002D000038007000E000E000E000E0007000380D2
:1002E00001C000F000000000000000000F000380CB
:1002F00001C000E0007000700070007000E001C0FC
:1003000003800F0000000000000000000180118841
:10031000099007E007E03FFC3FFC07E007E0099099
:1003200011880180000000000000000000000000B3
:100330000180018001800FF00FF0018001800180B9
:1003400000000000000000000000000000000000AD
:100350000000000000000000000000000000070096
:10036000070007000E000000000000000000000071
:100370000000000000001FF81FF80000000000004F
:10038000000000000000000000000000000000006D
:100390000000000000000000000000000000070056
:1003A0000700070000000000000000000002000637
:1003B000000E001C0038007000E001C00380070040
:1003C0000E001C0000000000000000000FF01C38B0
:1003D0001C781CF81CF81DB81DB81F381F381E38B3
:1003E0001C380FF0000000000000000001800180B8
:1003F00003801F801F8003800380038003800380AD
:1004000003801FF000000000000000000FE01C70DF
:100410001C380038007000E001C0038007000E386F
:100420001C381FF800000000000000000FE01C70E6
:100430001C380038007003C003C0007000381C383E
:100440001C700FE0000000000000000000E001E070
:1004500003E006E00CE018E01FF81FF800E000E001
:1004600000E003F800000000000000001FF81C007E
:100470001C001C001C001FE01FF0007800381C3816
:100480001C700FE0000000000000000003E0070007
:100490000E001C001C001FF01FF81C381C381C38F4
:1004A0001C380FF000000000000000001FFC1C1CA6
:1004B0001C1C1C1C001C0038007000E001C00380E4
:1004C0000380038000000000000000000FF01C38D3
:1004D0001C381C381F3807E007E01CF81C381C3893
:1004E0001C380FF000000000000000000FF01C3866
:1004F0001C381C381C381FF80FF800380038007002
:1005000000E007C000000000000000000000000044
:1005100003800380038000000000038003800380C9
:1005200000000000000000000000000000000000CB
:1005300003800380038000000000038003800380A9
:1005400007000000000000000000007000E001C093
:10055000038007000E001C001C000E000700038033
:1005600001C000E00070000000000000000000007A
:1005700000003FFC3FFC000000003FFC3FFC00008F
:10058000000000000000000000001C000E0007003A
:10059000038001C000E00070007000E001C0038033
:1005A00007000E001C000000000003C00FF01E78C2
:1005B00018380038007000E001C001C000000000E1
:1005C00001C001C001C0000000000FF81C1C1C1C71
:1005D0001C1C1C1C1CFC1CFC1CFC1CFC1C001C0013
:1005E0001C001FF007F800000000000003C007E037
:1005F0000E701C381C381C381C381FF81C381C386E
:100600001C381C3800000000000000001FF00E38ED
:100610000E380E380E380FF00FF00E380E380E3838
:100620000E381FF0000000000000000007F00E3838
:100630001C381C001C001C001C001C001C001C386A
:100640000E3807F000000000000000001FE00E70F0
:100650000E380E380E380E380E380E380E380E386A
:100660000E701FE000000000000000001FF80E18D0
:100670000E080E000E300FF00FF00E300E000E08B8
:100680000E181FF800000000000000001FF80E18F0
:100690000E080E000E300FF00FF00E300E000E00A0
:1006A0000E001F00000000000000000007F00E38E0
:1006B0001C381C381C001C001C001CF81C381C3882
:1006C0000E3807F800000000000000001C701C70CD
:1006D0001C701C701C701FF01FF01C701C701C70B4
:1006E0001C701C7000000000000000000FE0038080
:1006F00003800380038003800380038003800380E2
:1007000003800FE0000000000000000001FC00700A
:1007100000700070007000700070387038703870B1
:1007200038700FE000000000000000001E380E3896
:100730000E700EE00FC00F800F800FC00EE00E7025
:100740000E381E3800000000000000001F000E00E0
:100750000E000E000E000E000E000E000E080E1809
:100760000E381FF800000000000000001C1C1E3C9A
:100770001F7C1FFC1FFC1DDC1C9C1C1C1C1C1C1C4F
:100780001C1C1C1C00000000000000001C1C1C1C89
:100790001E1C1F1C1F9C1DDC1CFC1C7C1C3C1C1CF0
:1007A0001C1C1C1C000000000000000003E007F0FF
:1007B0000E381C1C1C1C1C1C1C1C1C1C1C1C0E385D
:1007C00007F003E000000000000000001FF00E38FA
:1007D0000E380E380E380FF00FF00E000E000E001F
:1007E0000E001F00000000000000000003E00F7872
:1007F0000E381C1C1C1C1C1C1C1C1C7C1CFC0FF81C
:100800000FF8003800FC0000000000001FF00E3858
:100810000E380E380E380FF00FF00E700E380E38FE
:100820000E381E3800000000000000000FF01C38D9
:100830001C381C381C000FE007F000381C381C382E
:100840001C380FF000000000000000001FFC19CC55
:1008500011C401C001C001C001C001C001C001C07C
:1008600001C007F000000000000000001C701C70B8
:100870001C701C701C701C701C701C701C701C7018
:100880001C700FE000000000000000001C701C70D5
:100890001C701C701C701C701C701C701C700EE096
:1008A00007C0038000000000000000001C1C1C1C8E
:1008B0001C1C1C1C1C1C1C9C1C9C1C9C0FF80FF85A
:1008C0000770077000000000000000001C701C7022
:1008D0001C700EE007C00380038007C00EE01C7090
:1008E0001C701C7000000000000000001C701C70D8
:1008F0001C701C701C700EE007C003800380038016
:1009000003800FE000000000000000001FF81C380A
:100910001838107000E001C0038007000E081C1892
:100920001C381FF8000000000000000007F007005E
:10093000070007000700070007000700070007007F
:10094000070007F000000000000000001000180081
:100950001C000E000700038001C000E0007000389A
:10096000001C0007000000000000000007F00070FD
:1009700000700070007000700070007000700070F7
:10098000007007F0000000000000018003C007E0D5
:100990000E701C3800000000000000000000000085
:1009A0000000000000000000000000000000000047
:1009B0000000000000000000000000000000000037
:1009C000000000007FFF7FFF000000001C001C00F3
:1009D0000700070000000000000000000000000009
:1009E0000000000000000000000000000000000007
:1009F000000000000FE0007000700FF01C701C7011
:100A00001C700FD800000000000000001E000E0047
:100A10000E000E000FF00E380E380E380E380E385D
:100A20000E381BF000000000000000000000000075
:100A3000000000000FE01C701C701C001C001C70EB
:100A40001C700FE0000000000000000000F80070C3
:100A5000007000700FF01C701C701C701C701C70FB
:100A60001C700FD800000000000000000000000013
:100A7000000000000FE01C701C701FF01C001C70B8
:100A80001C700FE0000000000000000003E0077091
:100A90000770070007001FE01FE0070007000700BE
:100AA00007001FC000000000000000000000000060
:100AB000000000000FD81C701C701C701C700FF020
:100AC00007F000701C700FE0000000001E000E0018
:100AD0000E000E000EF00F380F380E380E380E389C
:100AE0000E381E38000000000000000001C001C0E8
:100AF00001C000000FC001C001C001C001C001C0A1
:100B000001C00FF80000000000000000007000703D
:100B10000070000003F00070007000700070007042
:100B200000701C700CF007E0000000001E000E00BA
:100B30000E000E000E380E700EE00FC00EE00E70AC
:100B40000E381E3800000000000000000FC001C079
:100B500001C001C001C001C001C001C001C001C08D
:100B600001C00FF8000000000000000000000000BD
:100B7000000000001FF81C9C1C9C1C9C1C9C1C9CC6
:100B80001C9C1C9C000000000000000000000000F5
:100B9000000000001FE01C701C701C701C701C709A
:100BA0001C701C700000000000000000000000002D
:100BB000000000000FE01C701C701C701C701C708A
:100BC0001C700FE0000000000000000000000000AA
:100BD000000000001BF00E380E380E380E380E38AC
:100BE0000FF00E000E001F000000000000000000CB
:100BF000000000001FB038E038E038E038E038E0AE
:100C00001FE000E000E001F0000000000000000034
:100C1000000000001EF00FF80F380E000E000E004E
:100C20000E001F0000000000000000000000000097
:100C3000000000000FE01C301C300F8003E0187033
:100C400018700FE00000000000000000000001002C
:100C5000030007001FF007000700070007000770E8
:100C6000077003E00000000000000000000000002A
:100C7000000000001C701C701C701C701C701C702C
:100C80001C700FD8000000000000000000000000F1
:100C9000000000001C701C701C701C701C700EE0AA
:100CA00007C00380000000000000000000000000FA
:100CB000000000001C1C1C1C1C1C1C9C1C9C0FF815
:100CC0000770077000000000000000000000000036
:100CD000000000001CE01CE00FC0078007800FC070
:100CE0001CE01CE00000000000000000000000000C
:100CF000000000000E380E380E380E380E3807F09F
:100D000003E000E001C01F800000000000000000C0
:100D1000000000001FE018E011C0038007000E2053
:100D20001C601FE0000000000000000001F80380CC
:100D30000380038007001C001C0007000380038061
:100D4000038001F800000000000001C001C001C0E4
:100D500001C001C001C001C001C001C001C001C08B
:100D600001C001C001C00000000000001F8001C0E0
:100D700001C001C000E00038003800E001C001C03F
:100D800001C01F8000000000000000001F1C3B9CF1
:100D900039DC38F80000000000000000000000000E
:100DA00000000000000000001820205F000000008C
:100DB0000000000000000000000000000000000033
:100DC0000000000000000000000000000000000023
:100DD0000000000000000000000000000000000013
:100DE0000000000000000000000000000000000003
:100DF00000000000000000000000000000000000F3
:100E000000000000000000000000000000000000E2
:100E10001C00001C00001C00001C00001C00001C2A
:100E200000001C00001C00001C00001C00001C0036
:100E3000001C00001C00001C00001C00001800002A
:100E40000000000000000000001C00003E00003E0A
:100E500000003E00001C0000000000000000000038
:100E60000000000000000000000000000000000181
:100E7000C0E003E1F003E1F003E1F001E0F000E0A5
:100E80007001C0E003C1E00F87C00E070000000042
:100E90000000000000000000000000000000000052
:100EA0000000000000000000000000000000000042
:100EB0000000000000000000000000000000000032
:100EC0000000000000000000000000000000000022
:100ED00000000038700038700070E00070E00070B2
:100EE000E00070E00FFFF80FFFF80FFFF800E1C01F
:100EF00000E1C000E1C001C38001C38001C3800FD5
:100F0000FFF80FFFF80FFFF8038700038700038740
:100F100000038700070E00070E000000000000001D
:100F200000000000000000000000000000000000C1
:100F30003800003800003800003800007F0001FF52
:100F4000C003FFC007808007000007000007000003
:100F500007800003C00003F80001FE00007F80004E
:100F60000FC00003C00001E00000E00000E000004E
:100F7000E00201C007FFC007FF8001FE000038004B
:100F800000380000380000380000000000000007B2
:100F900080700FC0E00CC0E01861C0186380186357
:100FA00080186700186700186E000CDC000FDC006A
:100FB00007B800003BC00077E000766000EC30012D
:100FC000CC3001CC30038C30038C30070C300E0653
:100FD000600E07E01C03C0000000000000000000DD
:100FE0000000000000000000000000000000000001
:100FF0007C0000FF0001FF0003C7800383800383A0
:101000008003838003870001CF0001FE0000FC0005
:1010100001F07003F87003BC70071E600E0FE00E45
:1010200007E00E03C00E01C00F03E0078FE007FFCB
:101030007003FE7000F8380000000000000000009F
:1010400000000000000000000000000000000000A0
:101050001800003C00001E00000E00000700000207
:101060000000000000000000000000000000000080
:101070000000000000000000000000000000000070
:101080000000000000000000000000000000000060
:101090000000000000000000000000000000000050
:1010A0000000000000000000000000000007000039
:1010B0000F80000F00001E00003C00003800007090
:1010C0000000700000E00000E00000E00001C0004F
:1010D00001C00001C00001C00001C00001C000014A
:1010E000C00001C00001C00000E00000E00000E01E
:1010F00000007000007000003800003C00001E007E
:10110000000F0000078000030000010000600000E5
:10111000F000007800003C00001E00000E000007F8
:10112000000007000003800003800003800001C06E
:101130000001C00001C00001C00001C00001C000EA
:1011400001C00001C00001C0000380000380000353
:1011500080000700000700000E00001E00003C0099
:1011600000780000F0000060000040000000000077
:10117000000000000000000000000000000000006F
:1011800000001C00001C00001C00021C2003C9E021
:1011900007FFF001FFC0001C0000360000770000D0
:1011A000F38001E3C000E380004100000000000084
:1011B000000000000000000000000000000000002F
:1011C000000000000000000000000000000000001F
:1011D000000000000000000000000000380000389F
:1011E00000003800003800003800003800003800E7
:1011F0000FFFE00FFFE00FFFE000380000380000B5
:1012000038000038000038000038000038000000C6
:1012100000000000000000000000000000000000CE
:1012200000000000000000000000000000000000BE
:1012300000000000000000000000000000000000AE
:10124000000000000000000000000000000000009E
:10125000000000000000000000000000000000008E
:101260000000000000000000000000000E00001F51
:1012700000001F00001F00000F00000700000E000C
:10128000001C00007800007000000000000000005A
:10129000000000000000000000000000000000004E
:1012A000000000000000000000000000000000003E
:1012B00000FF0000FF0000FF000000000000000031
:1012C000000000000000000000000000000000001E
:1012D000000000000000000000000000000000000E
:1012E00000000000000000000000000000000000FE
:1012F00000000000000000000000000000000000EE
:1013000000000000000000000000000000000000DD
:1013100000000000000000000000000000000000CD
:101320000000000000000000000000000000001CA1
:1013300000003E00003E00003E00001C00000000D7
:101340000000000000000000000000000001C000DC
:1013500003800003800003800007000007000007EF
:1013600000000E00000E00000E00000E00001C0029
:10137000001C00001C00003800003800003800008D
:10138000700000700000700000E00000E00000E06D
:101390000000E00001C00001C00001C000038000A7
:1013A0000380000380000700000700000000000029
:1013B0000000007C0001FF0003FF8003C78007835B
:1013C000C00701C00701C00E00E00E00E00E30E0D3
:1013D0000E78E00E78E00E78E00E30E00E00E00EC1
:1013E00000E00E00E00701C00701C00783C003C78B
:1013F0008003FF8001FF00007C000000000000006F
:1014000000000000000000000000000000000000DC
:101410000000001C00001C00007C0000FC0003FC1D
:1014200000079C00021C00001C00001C00001C00A7
:10143000001C00001C00001C00001C00001C000020
:101440001C00001C00001C00001C00001C00001CF4
:101450000003FFC003FFC003FFC000000000000046
:10146000000000000000000000000000000000007C
:10147000000000FC0003FF0007FF800787C0020395
:10148000C00001C00001C00001C00001C000038015
:10149000000780000700000E00001C00003800005C
:1014A000700000E00001C00003800003800007001E
:1014B0000007FFE007FFE007FFE00000000000007A
:1014C000000000000000000000000000000000001C
:1014D000000001FC000FFF000FFF800607800003E3
:1014E000C00001C00001C00001C00003C0000780AF
:1014F00000FF0000FF0000FF800007C00001E000C7
:1015000000E00000E00000E00000E00001E0040373
:10151000C00FFF800FFF0003FC0000000000000070
:1015200000000000000000000000000000000000BB
:101530000000000780000F80001F80003F80003BFC
:101540008000738000F38001E38001C38003838007
:101550000383800703800F03800E03801E03801F18
:10156000FFF01FFFF01FFFF0000380000380000367
:101570008000038000038000038000000000000062
:10158000000000000000000000000000000000005B
:10159000000003FF8003FF8003FF800300000300BF
:1015A0000003000003000007000007000007F00030
:1015B00007FE0007FF00001F800007800003C00037
:1015C00001C00001C00001C00001C00003C00C0741
:1015D000800FFF000FFE0003F80000000000000075
:1015E00000000000000000000000000000000000FB
:1015F00000000003C0001FC0007FC000FC0001E02D
:101600000003C000038000070000070000067E0002
:101610000FFF800FFFC00F03C00E01E00E00E00EB1
:1016200000E00E00E00E00E00700E00701C007C385
:10163000C003FF8001FF00007E00000000000000EA
:10164000000000000000000000000000000000009A
:1016500000000FFFE00FFFE00FFFE00000E00001DF
:10166000C0000380000380000700000700000E0098
:10167000000E00001C00001C0000380000380000B4
:10168000380000700000700000700000700000E082
:101690000000E00000E00000E000000000000000AA
:1016A000000000000000000000000000000000003A
:1016B0000000007C0001FF0003FF8003C7C0070398
:1016C000C00701C00701C00701C00781C003C38074
:1016D00003F70001FE0001FF8003CFC00703C0062F
:1016E00001E00E00E00E00E00E00E00F01E00783D5
:1016F000C007FFC003FF8000FE00000000000000E4
:1017000000000000000000000000000000000000D9
:10171000000000FC0001FF0003FF800787C00701F5
:10172000C00E01C00E00E00E00E00E00E00E00E072
:101730000F00E00781E007FFE003FFE000FEE000AC
:1017400001C00001C00003C0000780000F00007E40
:101750000007FC0007F80007C000000000000000C0
:101760000000000000000000000000000000000079
:101770000000000000000000000000000000000069
:1017800000000000003800007C00007C00007C00AD
:101790000038000000000000000000000000000011
:1017A0000000000000000000003800007C00007C09
:1017B00000007C0000380000000000000000000075
:1017C0000000000000000000000000000000000019
:1017D0000000000000000000000000000000000009
:1017E00000000000003800007C00007C00007C004D
:1017F00000380000000000000000000000000000B1
:101800000000000000000000003800007C00007CA8
:1018100000007C00003C00001C000038000070004C
:1018200001E00001C0000000000000000000000016
:1018300000000000000000000000000000000000A8
:10184000000000000000400001E0000FE0003FC089
:1018500000FE0003F8000FC0000F00000FC00007DB
:10186000F80000FE00003FC0000FE00001E00000B3
:101870004000000000000000000000000000000028
:101880000000000000000000000000000000000058
:101890000000000000000000000000000000000048
:1018A000000000000000000000000FFFE00FFFE05C
:1018B0000FFFE0000000000000000000000000003A
:1018C00000000FFFE00FFFE00FFFE000000000004E
:1018D0000000000000000000000000000000000008
:1018E00000000000000000000000000000000000F8
:1018F00000000000000000000000000000000000E8
:10190000000000000400000F00000FE00007F800D6
:1019100000FE00003F800007E00001E00007E0005B
:101920003FC000FE0007F8000FE0000F00000400B9
:1019300000000000000000000000000000000000A7
:101940000000000000000000000000000000000097
:10195000FE0003FF8003FFC00103E00000E0000081
:10196000E00000E00000E00001C00003800007008C
:10197000000E00001C00003C000038000038000091
:101980000000000000000000003800007C00007C27
:1019900000007C0000380000000000000000000093
:1019A0000000000000000000000000000000000037
:1019B0003F0000FF8001FFC001E1E00380E0038001
:1019C000700700700700700707F00E1FF00E3FF061
:1019D0000E3C700E78700E70700E70700E70700E7F
:1019E00070700E78700E3870073FF0071FF0070711
:1019F000E007800003C00003C00001F00000FFC04A
:101A0000007FC0001FC000000000000000000000B8
:101A10007E00007E00007E0000FF0000F70000E76F
:101A20000000E70001E78001C38001C38003C3C059
:101A300003C1C00381C00381C00781E007FFE00745
:101A4000FFE007FFE00F00F00E00700E00700E00C8
:101A5000701E00781C00380000000000000000002C
:101A60000000000000000000000000000000000076
:101A700000000FFC000FFF000FFF800E07C00E03D9
:101A8000C00E01C00E01C00E01C00E03800E078003
:101A90000FFF000FFF000FFF800E03C00E01E00ECE
:101AA00000E00E00E00E00E00E00E00E01E00E0788
:101AB000C00FFFC00FFF000FFC000000000000007F
:101AC0000000000000000000000000000000000016
:101AD0003F80007FE001FFE003E04003C00007809B
:101AE000000700000700000E00000E00000E0000BE
:101AF0000E00000E00000E00000E00000E00000F91
:101B0000000007000007800003C00003E04001FF61
:101B1000E000FFE0003F8000000000000000000047
:101B20000000000000000000000000000000000FA6
:101B3000F0000FFE000FFF000E0F800E03800E035B
:101B4000C00E01C00E01E00E00E00E00E00E00E04D
:101B50000E00E00E00E00E00E00E00E00E00E00ED1
:101B600001E00E01C00E03C00E03800E0F800FFFB8
:101B7000000FFE000FF00000000000000000000059
:101B8000000000000000000000000000000000074E
:101B9000FFC007FFC007FFC00700000700000700E5
:101BA0000007000007000007000007000007FF8093
:101BB00007FF8007FF8007000007000007000007FD
:101BC000000007000007000007000007000007FFF3
:101BD000E007FFE007FFE000000000000000000059
:101BE00000000000000000000000000000000007EE
:101BF000FFE007FFE007FFE0070000070000070025
:101C00000007000007000007000007000007FFC0F2
:101C100007FFC007FFC0070000070000070000071C
:101C20000000070000070000070000070000070091
:101C30000007000007000000000000000000000096
:101C40000000000000000000000000000000000094
:101C50003F8000FFC001FFE003E0C003C0400780F9
:101C6000000700000700000E00000E00000E00003C
:101C70000E00000E00E00E00E00E00E00E00E00F8F
:101C800000E00700E00780E003C0E003E0E001FFC0
:101C9000E000FFE0003F80000000000000000000C6
:101CA0000000000000000000000000000000000E26
:101CB00000E00E00E00E00E00E00E00E00E00E007E
:101CC000E00E00E00E00E00E00E00E00E00FFFE08E
:101CD0000FFFE00FFFE00E00E00E00E00E00E00E50
:101CE00000E00E00E00E00E00E00E00E00E00E004E
:101CF000E00E00E00E00E000000000000000000028
:101D000000000000000000000000000000000007CC
:101D1000FFC007FFC007FFC00038000038000038D0
:101D2000000038000038000038000038000038009B
:101D3000003800003800003800003800003800008B
:101D4000380000380000380000380000380007FF75
:101D5000C007FFC007FFC000000000000000000037
:101D60000000000000000000000000000000000172
:101D7000FFC001FFC001FFC00001C00001C00001A1
:101D8000C00001C00001C00001C00001C00001C0CE
:101D90000001C00001C00001C00001C00001C0007E
:101DA00001C00001C00001C00403C00707800FFF8D
:101DB0000007FE0001FC0000000000000000000021
:101DC0000000000000000000000000000000000E05
:101DD00001E00E03C00E03800E07800E0F000E0EF2
:101DE000000E1C000E3C000E78000EF0000FE0000C
:101DF0000FE0000FF0000EF8000E7C000E3E000E0B
:101E00001E000E0F000E07800E03C00E03C00E0151
:101E1000E00E00E00E00F0000000000000000000F6
:101E200000000000000000000000000000000007AB
:101E3000000007000007000007000007000007007F
:101E4000000700000700000700000700000700006F
:101E50000700000700000700000700000700000758
:101E6000000007000007000007000007000007FF50
:101E7000E007FFE007FFE0000000000000000000B6
:101E8000000000000000000000000000000000034F
:101E900000600380F00780F00780F006C1B006C143
:101EA000B006E3B00663300663300677300636309E
:101EB000063630063E30061C380E1C380E00380E32
:101EC00000380E00380E00380E00380E00380E00B4
:101ED000380E00380E00380000000000000000003E
:101EE00000000000000000000000000000000007EB
:101EF000807007C07007C07007E07007E07007F0DF
:101F000070077070077070073870073870071C70A2
:101F1000071C70070E70070E700706700707700722
:101F200007700703F00703F00701F00701F007004F
:101F3000F00700F00700F0000000000000000000C3
:101F40000000000000000000000000000000000091
:101F50007C0001FF0003FF800783C00F01E00E003B
:101F6000E00E00E01C00F01C00701C00701C0070F3
:101F70001C00701C00701C00701C00701C00701C89
:101F800000F00E00E00E00E00F01E00783C003FF49
:101F90008001FF00007C0000000000000000000045
:101FA000000000000000000000000000000000072A
:101FB000FC0007FF0007FF800703C00701E00700E0
:101FC000E00700E00700E00700E00700E00701E0AD
:101FD0000703C007FF8007FF0007FC00070000079A
:101FE00000000700000700000700000700000700CE
:101FF00000070000070000000000000000000000D3
:1020000000000000000000000000000000000000D0
:102010007C0001FF0003FF800783C00F01E00E007A
:10202000E00E00E01C00F01C00701C00701C007032
:102030001C00701C00701C00701C00701C00701CC8
:1020400000F00E00E00E00E00F01E00783C003FF88
:102050008001FF0000FE00003800003C00001F006F
:10206000000FE00007E00000C00000000000000FCB
:10207000F8000FFE000FFF000E07800E03C00E01D8
:10208000C00E01C00E01C00E01C00E01C00E0380C3
:102090000E07800FFF000FFE000FFC000E1E000E4B
:1020A0000E000E07000E07000E03800E03800E01C7
:1020B000C00E01C00E00E0000000000000000000A3
:1020C0000000000000000000000000000000000010
:1020D0007F0001FFC003FFC003C0800700000700AE
:1020E0000007000007000007800003E00001F8007F
:1020F00000FE00003F80000FC00003C00001E000B0
:1021000000E00000E00000E00401E00F03C00FFF6A
:10211000C007FF8001FE000000000000000000007A
:102120000000000000000000000000000000000FA0
:10213000FFE00FFFE00FFFE000380000380000383C
:102140000000380000380000380000380000380077
:102150000038000038000038000038000038000067
:10216000380000380000380000380000380000381F
:1021700000003800003800000000000000000000EF
:102180000000000000000000000000000000000E41
:1021900000E00E00E00E00E00E00E00E00E00E0099
:1021A000E00E00E00E00E00E00E00E00E00E00E0A9
:1021B0000E00E00E00E00E00E00E00E00E00E00E6B
:1021C00000E00E00E00F01E00701C00783C003FF3D
:1021D0008001FF0000FE0000000000000000000081
:1021E0000000000000000000000000000000001CD3
:1021F00000701C00700E00E00E00E00E00E00E000B
:10220000E00701C00701C00701C00701C0038380C8
:1022100003838003838003878001C70001C7000117
:10222000C70000EE0000EE0000EE00007C00007C25
:1022300000007C00007800000000000000000000AA
:102240000000000000000000000000000000000E80
:1022500000E00E00E00E00E00E00E00E00E00E00D8
:10226000E00E00E00E00E00E00E00E38E00E38E078
:102270000E38E00E6CE00E6CE00E6CE00EC6E00E68
:10228000C6E00EC6E00F83E00F83E00F83E00F018E
:10229000E00701C00701C0000000000000000000CE
:1022A0000000000000000000000000000000001E10
:1022B00000F00E00E00F01E00701C00383800383FC
:1022C0008001C70001EF0000EE0000FE00007C006E
:1022D000003800003800007C0000FE0000EE000125
:1022E000C70003C7800383800783C00701C00F01B5
:1022F000E00E00E01E00F000000000000000000002
:102300000000000000000000000000000000001CB1
:1023100000700E00E00E00E00F01E00701C007832F
:10232000C003838003C38001C70001EF0000EE00FB
:1023300000FE00007C00007C000038000038000037
:10234000380000380000380000380000380000383D
:10235000000038000038000000000000000000000D
:102360000000000000000000000000000000000766
:10237000FFE007FFE007FFE00001C00003C000032B
:1023800080000700000F00000E00001E00003C004F
:1023900000380000780000700000E00001E000015B
:1023A000C00003C0000380000780000700000FFF8B
:1023B000E00FFFE00FFFE000000000000000000061
:1023C00000000000000000000000000001FF00010C
:1023D000FF0001C00001C00001C00001C00001C039
:1023E0000001C00001C00001C00001C00001C00028
:1023F00001C00001C00001C00001C00001C0000117
:10240000C00001C00001C00001C00001C00001C047
:102410000001C00001C00001C00001C00001C000F7
:1024200001C00001C00001FF0001FF0003800003A4
:10243000C00001C00001C00000E00000E00000E0BA
:102440000000700000700000700000700000380094
:10245000003800003800001C00001C00001C0000B8
:102460000E00000E00000E0000070000070000072D
:10247000000007000003800003800003800001C00B
:102480000001C00001C00000E00000E000FF80008B
:10249000FF800003800003800003800003800003AE
:1024A000800003800003800003800003800003801D
:1024B000000380000380000380000380000380008D
:1024C000038000038000038000038000038000037A
:1024D00080000380000380000380000380000380ED
:1024E00000038000038000FF8000FF8000000000E8
:1024F0003800007C00007C0000EE0000EE0001C708
:102500000001C70003C7800383800783C00701C0A1
:102510000F01E00200800000000000000000000049
:1025200000000000000000000000000000000000AB
:10253000000000000000000000000000000000009B
:10254000000000000000000000000000000000008B
:10255000000000000000000000000000000000007B
:10256000000000000000000000000000000000006B
:10257000000000000000000000000000000000005B
:10258000000000000000000000000000000000004B
:10259000003FFFF83FFFF83FFFF800000000000099
:1025A000000000000000000000000000000000002B
:1025B0007C0000FE0001C70001830001830001834D
:1025C0000001C70000FE00007C00000000000000C9
:1025D00000000000000000000000000000000000FB
:1025E00000000000000000000000000000000000EB
:1025F00000000000000000000000000000000000DB
:1026000000000000000000000000000000000000CA
:1026100000000000000000000000000000000000BA
:102620000000000000FE0001FF8001FFC00183E008
:102630000001E00000E00000E0007FE001FFE003B7
:10264000FFE007C0E00700E00700E00700E00780C8
:10265000E003FFE001FFE0007FC000000000000099
:10266000000000000000000000000000070000075C
:102670000000070000070000070000070000070037
:1026800000070000077E0007FF0007FF800783C0E8
:102690000701C00701E00700E00700E00700E007CE
:1026A00000E00700E00700E00701E00701C00707BE
:1026B000C007FF8007FF0003FC00000000000000CF
:1026C000000000000000000000000000000000000A
:1026D00000000000000000000000000000000000FA
:1026E00000000000003FC000FFE003FFE003E04007
:1026F0000780000700000E00000E00000E00000E14
:1027000000000E00000E000007000007800003E03C
:102710006003FFE000FFE0003FC000000000000099
:102720000000000000000000000000000000E000C9
:1027300000E00000E00000E00000E00000E0000039
:10274000E00000E0007EE000FFE001FFE003C1E008
:102750000380E00780E00700E00700E00700E007F3
:1027600000E00700E00700E00780E00380E003E00E
:10277000E001FFE000FFE0003F80000000000000FB
:102780000000000000000000000000000000000049
:102790000000000000000000000000000000000039
:1027A00000000000007E0001FF0003FF8007C3C09F
:1027B0000701C00700E00E00E00FFFE00FFFE00F91
:1027C000FFE00E00000E000007000007000007C039
:1027D000C003FFC001FFC0007F0000000000000038
:1027E000000000000000000000000000000FC0001A
:1027F0003FF0007FF000783000F00000E00000E0E3
:102800000000E0000FFFC00FFFC00FFFC000E0009E
:1028100000E00000E00000E00000E00000E0000058
:10282000E00000E00000E00000E00000E00000E068
:102830000000E00000E00000E000000000000000F8
:102840000000000000000000000000000000000088
:102850000000000000000000000000000000000078
:1028600000007F0001FFC003FFC00781C00701C057
:102870000F01C00E01C00E01C00E01C00E01C00E3E
:1028800001C00E01C00701C00783C003FFC001FFE4
:10289000C000FDC00001C00001C00003C0060780E9
:1028A00007FF8007FF0003FC00000000070000078F
:1028B00000000700000700000700000700000700F5
:1028C0000007000007FC0007FF0007FF80070780E4
:1028D0000703C00701C00701C00701C00701C00707
:1028E00001C00701C00701C00701C00701C00701FF
:1028F000C00701C00701C00701C0000000000000C0
:1029000000000000000000000000000000000000C7
:10291000600000F00000F000006000000000000017
:10292000000000000FF0000FF0000FF0000070003A
:102930000070000070000070000070000070000067
:1029400070000070000070000070000070000078DF
:1029500020003FE0003FE0000FC00000000000004A
:102960000000000000000000000000000000000067
:102970000600000F00000F0000060000000000002D
:102980000000000003FF8003FF8003FF800003803E
:1029900000038000038000038000038000038000A8
:1029A0000380000380000380000380000380000395
:1029B0008000038000038000038000038000038008
:1029C000060F000FFF000FFE0003F80007000007CE
:1029D00000000700000700000700000700000700D4
:1029E000000700000701E00703C0070780070F008A
:1029F000071E00073C0007780007F00007E000070B
:102A0000F000077800071C00070F00070700070306
:102A1000800703C00701E00700F00000000000008D
:102A200000000000000000000000000007F80007A0
:102A3000F80007F8000038000038000038000038BF
:102A4000000038000038000038000038000038006E
:102A5000003800003800003800003800003800005E
:102A60003800003800003800003800003800003C12
:102A700010001FF0001FF00007E000000000000041
:102A80000000000000000000000000000000000046
:102A90000000000000000000000000000000000036
:102AA0000000000007E3C00FFFE00FFFE00E3CF066
:102AB0000E1C700E1C700E1C700E1C700E1C700E06
:102AC0001C700E1C700E00700E00700E00700E0058
:102AD000700E00700E00700E00700000000000000C
:102AE00000000000000000000000000000000000E6
:102AF00000000000000000000000000000000000D6
:102B00000000000000FE0003FF8003FFC00383C03D
:102B10000381E00380E00380E00380E00380E003C2
:102B200080E00380E00380E00380E00380E0038036
:102B3000E00380E00380E00380E00000000000008C
:102B40000000000000000000000000000000000085
:102B50000000000000000000000000000000000075
:102B600000000000007C0001FF0003FF800783C01D
:102B70000701C00F01E00E00E00E00E00E00E00EC5
:102B800000E00E00E00E00E00701E00701C007834F
:102B9000C003FF8001FF00007C0000000000000077
:102BA0000000000000000000000000000000000025
:102BB0000000000000000000000000000000000015
:102BC0000000000001FC0007FF0007FF800707C0AE
:102BD0000701C00701C00700E00700E00700E007A9
:102BE00000E00700E00700E00701E00701C00783FD
:102BF000C007FF8007FF00077C00070000070000F8
:102C000007000007000007000007000000000000A8
:102C100000000000000000000000000000000000B4
:102C200000000000003F8000FFE001FFE003E0E063
:102C30000380E00380E00700E00700E00700E00712
:102C400000E00700E00700E00780E00380E003C148
:102C5000E001FFE000FFE0003EE00000E00000E0F7
:102C60000000E00000E00000E00000E000000000E4
:102C70000000000000000000000000000000000054
:102C80000000000000FFC007FFC007FFC0078080F2
:102C9000070000070000070000070000070000070A
:102CA0000000070000070000070000070000070001
:102CB00000070000070000070000000000000000FF
:102CC0000000000000000000000000000000000004
:102CD00000000000000000000000000000000000F4
:102CE0000000000000FF0001FF8003FF80078180DB
:102CF00007000007000007C00003F00001FE00000D
:102D00007F00001F800003C00001C00001C0060357
:102D1000C007FF8007FF8001FE00000000000000E8
:102D200000000000000000000000000000000000A3
:102D3000000000000000E00000E00000E00000E013
:102D40000000E0000FFFE00FFFE00FFFE000E000F9
:102D500000E00000E00000E00000E00000E0000013
:102D6000E00000E00000E00000E00000E00000F013
:102D700020007FE0007FE0001FC000000000000096
:102D80000000000000000000000000000000000043
:102D90000000000000000000000000000000000033
:102DA000000000000701C00701C00701C00701C003
:102DB0000701C00701C00701C00701C00701C00724
:102DC00001C00701C00701C00701C00781C003C1DE
:102DD000C003FFC001FFC0007F0000000000000032
:102DE00000000000000000000000000000000000E3
:102DF00000000000000000000000000000000000D3
:102E0000000000001C00701E00F00E00E00E00E04C
:102E10000F01E00701C00701C00783C003838003DF
:102E2000838003C70001C70001EF0000EE0000FE31
:102E300000007C00007C00007C000000000000001E
:102E40000000000000000000000000000000000082
:102E50000000000000000000000000000000000072
:102E6000000000001C00701C00701C00701C007032
:102E70001C10700C38E00E38E00E38E00E28E00E22
:102E80006CE00E6CE00644C006C6C006C7C00787EB
:102E9000C00783C007838003038000000000000098
:102EA0000000000000000000000000000000000022
:102EB0000000000000000000000000000000000012
:102EC000000000001E01E00F03C00703800387809D
:102ED00003CF0001EE0000FC00007C000078000041
:102EE0007C0000FE0001EE0001C70003C3800783E1
:102EF000C00F01C00E01E01E00F000000000000045
:102F000000000000000000000000000000000000C1
:102F100000000000000000000000000000000000B1
:102F2000000000000E00700F00F00700E00700E056
:102F30000780E00381E00381C003C1C001C3C00179
:102F4000C38001E38000E78000F780007700007F06
:102F500000003E00003E00001E00003C00003C005F
:102F60000078000FF0000FF0000FC000000000001C
:102F70000000000000000000000000000000000051
:102F80000000000007FFC007FFC007FFC00003806C
:102F9000000780000F00001E00001C000038000029
:102FA000780000F00000E00001E00003C0000380B2
:102FB0000007FFC007FFC007FFC0000000000000BF
:102FC0000000000000000000000000000000000001
:102FD000000000700000E00000E00000E00000E001
:102FE0000000E00000E00000E00000E00000E00081
:102FF00000E00000E00001C0000F80000F80000131
:10300000C00000E00000E00000E00000E00000E0A0
:103010000000E00000E00000E00000E00000E00050
:1030200000E000007000007F80001F80001C000096
:103030001C00001C00001C00001C00001C00001CE8
:1030400000001C00001C00001C00001C00001C00F4
:10305000001C00001C00001C00001C00001C0000E4
:103060001C00001C00001C00001C00001C00001CB8
:1030700000001C00001C00001C00001C00001C00C4
:10308000001C00001C00001C00001C0000FC0000D4
:10309000FF0000070000038000038000038000039E
:1030A0008000038000038000038000038000038011
:1030B0000003800003800001C00000F80000F80059
:1030C00001C0000380000380000380000380000330
:1030D00080000380000380000380000380000380E1
:1030E00000038000070000FF0000FC00000000015A
:1030F000E02003F03007FC700E3FE00C0FC0040727
:10310000800000000000000000000000000000003F
:1031100000000000000000000000000000000000AF
:10312000000000000000000000000000000000009F
:10313000000000000000000000000000000000008F
:1031400000000000000000000000000000000A0B6A
:1031500002090C0D0E080703040100000000000026
:10316000000000000000000000000000000000005F
:10317000000000000000000012111000000000001C
:10318000000000000000000000000000000000003F
:10319000000001021020200808102040102040806C
:1031A000020102010804020101020408102040800B
:1031B0008040201008040201800402018040201099
:1031C00008040201080402010102040810204080E2
:1031D00001020408102040800505050507050808C0
:1031E0000808020202020A0A080804040404010191
:1031F00001010101010103030303030303030407A6
:1032000007070C0C0C0C0C0C0C0C0202020206063C
:103210000606060606060B0B0B0B0B0B0B0B000032
:103220002200250028002B002E003100340002016E
:103230000000050108010B01000021002400270007
:103240002A002D00300033000101000004010701B5
:103250000A014E414E494E495459494E46CDCCCCB7
:103260003D0AD7233C17B7D13877CC2B329595E65A
:10327000241FB14F0A000020410000C84200401C3A
:103280004620BCBE4CCA1B0E5AAEC59D7400407A87
:1032900010F35A00A0724E18090010A5D4E80000DF
:1032A000E87648170000E40B54020000CA9A3B007D
:1032B0000000E1F505000080969800000040420FF4
:1032C000000000A08601000000102700000000E8B8
:1032D00003000000006400000000000A000000007D
:1032E000000100000000002C76D888DC674F08231E
:1032F000DFC1DFAE59E1B1B796E5E3E453C63AE684
:1033000051997696E8E6C28426EB898C9B62ED4063
:103310007C6FFCEFBC9C9F40F2BAA56FA5F49005B2
:103320005A2AF75C936B6CF9676DC11BFCE0E40DE6
:1033300047FEF520E6B500D0ED902E0300943577DA
:10334000050080841E080000204E0A000000C80C02
:10335000333333330F986E12831141EF8D2114896B
:103360003BE65516CFFEE6DB18D1844B381BF77CC5
:103370001D901DA4BBE424203284725E228100C90A
:10338000F124ECA1E53D2700561E1E4BB750112439
:103390001FBECFEFD1E2DEBFCDBF00E00CBF16E015
:1033A000A0E0B2E0E4E2F5EB00E00BBF02C0079062
:1033B0000D92A43CB107D9F729E0A4ECB6E001C016
:1033C0001D92AB34B207E1F713E3CEE8D3E300E09C
:1033D00006C022970109FE010BBF0E940956C8389A
:1033E000D10780E00807A9F70E94FB500C94905A7F
:1033F0000C9400000895BF92CF92DF92EF92FF925B
:103400000F931F93CF93DF9381E097E00E944B4986
:103410000097E9F10E943F568C0181E097E00E94FD
:103420004B494CE3409F9001419F300D1124A9016D
:1034300042505C4F7A01C0E0D0E0690120E2B22E38
:10344000009761F48CE3809FF001819FF00D1124BF
:10345000EC0FFD1FE250FC4F108219C00430110523
:103460008CF7FC012191CE010196222329F0CE0D8B
:10347000DF1D2883EC01F6CFCC0DDD1DC250DC4FE3
:10348000B882EC0181E097E00E944B49D9CFDF91EF
:10349000CF911F910F91FF90EF90DF90CF90BF9051
:1034A0000895BF92CF92DF92EF92FF920F931F93F6
:1034B000CF93DF9381E097E00E944B49009709F496
:1034C000A2C00E943F567C0181E097E00E944B49D8
:1034D000009771F42AE32E9D80012F9D100D112479
:1034E000E801C251DB4FC12CD12C30E2B32E1FC0FA
:1034F0002AE32E9DA0012F9D500D112442515B4FB8
:1035000020E030E0FA01E20FF31F10822F5F3F4FFF
:1035100022333105B9F7DECFF801EC0DFD1DE25184
:10352000FB4FB0826C0181E097E00E944B4900970D
:1035300089F023E0E216F1040CF065C0FC01219152
:10354000C6010196222341F3DE01AC0DBD1D2C9373
:103550006C01F5CF83E0E816F1040CF054C08AE367
:103560008E9DE0018F9DD00D1124C251DB4F68ADBF
:1035700079AD80ED96E00E94C6424CA95DA98A0112
:10358000015F1F4F2FE831E060E070E080ED96E0D2
:103590000E94EA436EA97FA980ED96E00E94C64290
:1035A00048AD59AD662757FD6095762F80ED96E0C2
:1035B0000E94CA4264EC71E080ED96E00E941249DC
:1035C0002CA93DA900E010E04EE057E2BE0180EDDD
:1035D00096E00E946948C114D10421F0CC0DDD1D94
:1035E000219718828AE38E9DF0018F9DF00D1124A2
:1035F000DF01AC0DBD1DA251BB4F1C92E251FB4F30
:10360000EC0DFD1D1182DF91CF911F910F91FF9065
:10361000EF90DF90CF90BF900895CF93DF9381E03C
:1036200097E00E944B490097D1F00E943F56EC0171
:1036300081E097E00E944B49009789F0C630D105A0
:1036400074F40E943C562AE32C9FF0012D9FF00D4C
:103650001124EE55FD4F6083718382839383DF9144
:10366000CF910895DC01ED91FC910190F081E02D66
:10367000199481E097E00C948949EF92FF920F939F
:103680001F93CF93DF93CDB7DEB72A970FB6F89489
:10369000DEBF0FBECDBF8091CC069091CD066AE112
:1036A000F62EF89EF001F99EF00D1124EA5FFD4F11
:1036B000208D318D8091CE069091CF062817390745
:1036C00009F0E6C08091CA069091CB06F89EF00101
:1036D000F99EF00D1124EA5FFD4F80819181909356
:1036E000C9068093C8065AE3E52EE89EF001E99EDC
:1036F000F00D1124EE55FD4F60817181828193811F
:103700008E010F5F1F4F21E045E00E941C56809103
:10371000C8069091C906E89E8001E99E100D11240B
:103720000E551D4FF80160AD71AD882777FD80956E
:10373000982F0E94FA539B01AC01F80160817181BE
:10374000828193810E94E3542091CA063091CB0676
:10375000F29EF001F39EF00D1124EA5FFD4F181662
:103760001CF46289738902C06089718980ED96E0DA
:103770000E94C6428091CA069091CB064AE1F42E7F
:10378000F89EF001F99EF00D1124EA5FFD4F468589
:103790005785662757FD6095762F80ED96E00E944D
:1037A000CA4268EA7DE080ED96E00E94124980916D
:1037B000CA069091CB06F89EF001F99EF00D1124F7
:1037C000EA5FFD4F2481358180859185280F391F5F
:1037D0004281538186819781480F591F00E010E094
:1037E000BE016F5F7F4F80ED96E00E946948809137
:1037F000CA069091CB06F89EF001F99EF00D1124B7
:10380000EA5FFD4F6489758980ED96E00E94C642AB
:103810008091CA069091CB06F89EF001F99EF00DBA
:103820001124EA5FFD4F46895789662757FD609549
:10383000762F80ED96E00E94CA4264EC71E080ED44
:1038400096E00E9412498091CA069091CB06F89E9C
:10385000F001F99EF00D1124EA5FFD4F24813581BE
:1038600084859585280F391F2E5F3F4F42815381F4
:103870008091C8069091C906EAE3E89FB001E99FEC
:10388000700D11246A557D4F80ED96E00E946948C5
:103890008091CA069091CB060196863091052CF452
:1038A0009093CB068093CA0604C01092CB06109268
:1038B000CA062A960FB6F894DEBF0FBECDBFDF91C1
:1038C000CF911F910F91FF90EF9008950F931F9349
:1038D000CF931092CD061092CC06CAE18091CC060F
:1038E0009091CD06863091050CF094C0C89FF001F0
:1038F000C99FF00D1124EA5FFD4F208D318D80911D
:10390000CE069091CF062817390709F079C061E0FB
:103910007DED80ED96E00E94C6428091CC069091AC
:10392000CD06C89FF001C99FF00D1124EA5FFD4F3D
:10393000448155816281738104851585040F151FAB
:1039400022853385260F371F80ED96E00E94A6431F
:1039500060E070E080ED96E00E94C6428091CC0667
:103960009091CD06C89FF001C99FF00D1124EA5F28
:10397000FD4F448155816281738104851585040F53
:10398000151F0150110922853385260F371F21503D
:1039900031094F5F5F4F6F5F7F4F80ED96E00E9470
:1039A000EA438091CC069091CD06C89FF001C99F53
:1039B000F00D1124EA5FFD4F6689778980ED96E06E
:1039C0000E94C6428091CC069091CD06C89FF0011E
:1039D000C99FF00D1124EA5FFD4F44815581848514
:1039E0009585480F591F628173818A010C5E1F4FB4
:1039F00022853385260F371F80ED96E00E94EA432B
:103A00008091CC069091CD0601969093CD0680933F
:103A1000CC0664CFCF911F910F9108950F931F9300
:103A2000CF93DF932CE3289FE001299FD00D112431
:103A3000C250DC4F2AAD3BAD8091CE069091CF06AF
:103A400028173907B1F568AD79AD80ED96E00E9491
:103A5000C6424CA95DA98A010C5E1F4F2FE831E0D8
:103A600060E070E080ED96E00E94EA436EA97FA9D5
:103A700080ED96E00E94C64248AD59AD662757FDDD
:103A80006095762F80ED96E00E94CA4264EC71E06A
:103A900080ED96E00E9412492CA93DA92D5F3F4F71
:103AA0004AA95BA900E010E0BE0180ED96E00E940B
:103AB0006948DF91CF911F910F9108951092CD0623
:103AC0001092CC068091CC069091CD068430910561
:103AD0005CF4A4DF8091CC069091CD060196909382
:103AE000CD068093CC06EECF08950F931F93CF930E
:103AF00060E070E080ED96E00E94C64240E050E059
:103B0000BA0180ED96E00E94CA420FEE10E02FE865
:103B100031E040E050E060E070E080ED96E00E942F
:103B2000EA43D4DE8091CE069091CF06892B21F016
:103B3000CF911F910F91C2CF64EC71E080ED96E0C0
:103B40000E9412491092CD061092CC06CAE38091D1
:103B5000CC069091CD068330910554F7C89FF001B3
:103B6000C99FF00D1124E251FB4F66A977A980EDA2
:103B700096E00E94C6428091CC069091CD06C89FE7
:103B8000F001C99FF00D1124E251FB4F40AD51AD42
:103B9000662757FD6095762F80ED96E00E94CA4219
:103BA0008091CC069091CD06C89FB001C99F700D41
:103BB000112462517B4FFB0124A935A900E010E0DC
:103BC0004EE057E280ED96E00E9469488091CC0675
:103BD0009091CD0601969093CD068093CC06B7CFF9
:103BE00081E097E00E944B49009739F00E943F56D0
:103BF0009093CF068093CE0678CF089561E080ED54
:103C000096E00E94562868EA7DE080ED96E00E94EA
:103C1000124926E040E855E260E070E08CEA98E066
:103C20000E94EF4F1092CF061092CE064DE05BE15E
:103C30006CE376E081E097E00E9455494BEF59E153
:103C400062E476E081E097E00E94554941E55AE15F
:103C500069E476E081E097E00E94554940EF5DE13C
:103C60006DE476E081E097E00E9455496AEF79E1E2
:103C700081E097E00E94834938DF83EE97E00E945D
:103C8000EB4A68E670E083EE97E00E940B4B6BE630
:103C900070E083EE97E0E6DC60E070E083EE97E0B2
:103CA000E1DC61E083EE97E00C940C4BCF92DF9265
:103CB000EF92FF920F931F9381E097E00E943C499F
:103CC000C12CD12C79E2E72EF12C08E210E027E29A
:103CD00030E046E250E068E080ED96E04FD61F917C
:103CE0000F91FF90EF90DF90CF900895CF93C1DCBC
:103CF000C4DCE4DE8091CE069091CF060397B1F448
:103D000060ED77E080E090E00E94984D8091C606DB
:103D10009091C7060A969093C7068093C606883688
:103D2000914024F01092C7061092C606E091C40696
:103D3000F091C506EF30F10508F023C1EE58FF4FB2
:103D40000C94F95568E670E083EE97E00E940B4B07
:103D50006BE370E083EE97E085DC60E083EE97E054
:103D60000E940C4B21E030E04EE050E068E670E04D
:103D700083EE97E00E94004BE6C083EE97E00E943E
:103D80005E4AC82F83EE97E00E945E4A20E030E052
:103D90003C2F822B932B9093E2078093E107D3C0B3
:103DA00083EE97E00E945E4AC82F83EE97E00E9460
:103DB0005E4A20E030E03C2F822B932B9093E0076B
:103DC0008093DF07C0C083EE97E00E945E4AC82F51
:103DD00083EE97E00E945E4A20E030E03C2F822B89
:103DE000932B9093DE078093DD07ADC083EE97E0C1
:103DF0000E945E4AC82F83EE97E00E945E4A20E050
:103E000030E03C2F822B932B9093DC078093DB07D1
:103E10009AC083EE97E00E945E4AC82F83EE97E037
:103E20000E945E4A20E030E03C2F822B932B90933F
:103E3000DA078093D90787C083EE97E00E945E4A35
:103E4000C82F83EE97E00E945E4A20E030E03C2FCE
:103E5000822B932B9093D8078093D70774C083EE5F
:103E600097E00E945E4AC82F83EE97E00E945E4A68
:103E700020E030E03C2F822B932B9093D607809349
:103E8000D50761C063E576E08CEA98E00E94455171
:103E90006091E1077091E20750C06AE576E08CEA34
:103EA00098E00E9445516091DF077091E00745C09E
:103EB00064E676E08CEA98E00E9445516091DD0767
:103EC0007091DE073AC06EE676E08CEA98E00E94D8
:103ED00045516091DB077091DC07882777FD80955D
:103EE000982F0E94FA5320E030E04AEA53E40E94FF
:103EF0005F5328EB3EE142E152E40E94F452AB01F1
:103F0000BC0122E030E08CEA98E00E94F1521BC034
:103F100068E776E08CEA98E00E9445516091D90705
:103F20007091DA070AC062E876E08CEA98E00E94B5
:103F300045516091D7077091D8074AE050E08CEA6C
:103F400098E00E94FD518091C4069091C5060196AB
:103F50009093C5068093C40614C06CE876E08CEAA2
:103F600098E00E9445516091D5077091D6074AE0CC
:103F700050E08CEA98E00E9404521092C50610921C
:103F8000C406CF910895FC01283009F4FAC018F452
:103F9000213041F00895203109F403C1213109F4A1
:103FA0000EC1089587858430C9F4A08DB18D82A19A
:103FB0009C91613019F4982B9C9303C080958923C0
:103FC0008C93A28DB38D9C9183A1809589238C9332
:103FD000A28DB38D8C9193A1892B0BC0A089B1893F
:103FE000868D9C91613019F4982B9C9303C0809529
:103FF00089238C93A08DB18D82A19C9147FF03C032
:10400000982B9C9303C0809589238C93A28DB38DAC
:104010009C9183A1809589238C93A28DB38D8C91E3
:1040200093A1892B8C93A08DB18D82A19C9146FF89
:1040300003C0982B9C9303C0809589238C93A28DF9
:10404000B38D9C9183A1809589238C93A28DB38D90
:104050008C9193A1892B8C93A08DB18D82A19C9181
:1040600045FF03C0982B9C9303C0809589238C93B4
:10407000A28DB38D9C9183A1809589238C93A28D71
:10408000B38D8C9193A1892B8C93A08DB18D82A13E
:104090009C9144FF03C0982B9C9303C08095892377
:1040A0008C93A28DB38D9C9183A1809589238C9351
:1040B000A28DB38D8C9193A1892B8C93A08DB18D02
:1040C00082A19C9143FF03C0982B9C9303C08095D1
:1040D00089238C93A28DB38D9C9183A18095892394
:1040E0008C93A28DB38D8C9193A1892B8C93A08DF1
:1040F000B18D82A19C9142FF03C0982B9C9303C079
:10410000809589238C93A28DB38D9C9183A18095FA
:1041100089238C93A28DB38D8C9193A1892B8C9341
:10412000A08DB18D82A19C9141FF03C0982B9C93DF
:1041300003C0809589238C93A28DB38D9C9183A11C
:10414000809589238C93A28DB38D8C9193A1892B1B
:104150008C93A08DB18D82A19C9140FF03C0982BC0
:104160009C9303C0809589238C93A28DB38D9C91E1
:1041700083A1809589238C93A28DB38D8C9193A17B
:10418000AEC062B9A289B3899C91878D809589233D
:104190008C93A289B3898C91978D892B8C9342B98A
:1041A00002C062B948B9A289B3899C91878D809574
:1041B00089238C93A289B3898C91978D90C0A598FF
:1041C00094B3862F8071880F892B84BB8091020164
:1041D000877E8093020120910201862F992787FD17
:1041E0009095807C992733E0959587953A95E1F7EE
:1041F000282B209302018EB1847C8EB99EB1862F2C
:104200008C70880F880F262F2370820F607277279B
:1042100067FD70957595679575956795860F892BE0
:104220008EB9A48DB58D9C9184A1809589238C93A2
:10423000A48DB58D8C9194A1892B8C93A48DB58D73
:104240009C9184A1809589238C93A489B5899C91A4
:1042500080A1809589238C93A59894B3842F807135
:10426000880F892B84BB80910201877E8093020195
:1042700020910201842F992787FD9095807C9927B2
:1042800063E0959587956A95E1F7282B20930201C5
:104290008EB1847C8EB99EB1842F8C70880F880F6C
:1042A000242F2370820F4072552747FD5095559556
:1042B000479555954795840F892B8EB9A289B38967
:1042C0009C91878D809589238C93A289B3898C9149
:1042D000978D892B8C93A489B5898C9190A1892B7A
:1042E0008C930895613131F08FEF81B9603149F4D9
:1042F00087B9089588E18093010180E283BB8BE355
:104300008DB908958F929F92AF92BF92CF92DF9214
:10431000EF92FF920F931F93CF93DF93EC0168010D
:10432000790162B948B9C901B80120E130E040E043
:1043300050E00E94DD55812C912C54018216930689
:10434000A406B5060CF0D6C0EA89FB8990818F8D52
:10435000809589238083EA89FB8980819F8D892BC1
:104360008083EA89FB8990818F8D80958923808362
:10437000EA89FB8980819F8D892B8083EA89FB896B
:1043800090818F8D809589238083EA89FB89808144
:104390009F8D892B8083EA89FB8990818F8D809501
:1043A00089238083EA89FB8980819F8D892B808383
:1043B000EA89FB8990818F8D809589238083EA89A2
:1043C000FB8980819F8D892B8083EA89FB8990817D
:1043D0008F8D809589238083EA89FB8980819F8DD9
:1043E000892B8083EA89FB8990818F8D8095892331
:1043F0008083EA89FB8980819F8D892B8083EA896C
:10440000FB8990818F8D809589238083EA89FB8940
:1044100080819F8D892B8083EA89FB8990818F8D94
:10442000809589238083EA89FB8980819F8D892BF0
:104430008083EA89FB8990818F8D80958923808391
:10444000EA89FB8980819F8D892B8083EA89FB899A
:1044500090818F8D809589238083EA89FB89808173
:104460009F8D892B8083EA89FB8990818F8D809530
:1044700089238083EA89FB8980819F8D892B8083B2
:10448000EA89FB8990818F8D809589238083EA89D1
:10449000FB8980819F8D892B8083EA89FB899081AC
:1044A0008F8D809589238083EA89FB8980819F8D08
:1044B000892B8083EA89FB8990818F8D8095892360
:1044C0008083EA89FB8980819F8D892B8083EA899B
:1044D000FB8990818F8D809589238083EA89FB8970
:1044E00080819F8D892B80838FEF881A980AA80A74
:1044F000B80A24CFB701A6014F7055276627772742
:10450000452B462B472B19F1C701B60120E130E0BE
:1045100040E050E00E94DD55C12CD12C76016C1595
:104520007D058E059F059CF0EA89FB8930812F8DE2
:10453000209523232083EA89FB8920813F8D232B2B
:1045400020832FEFC21AD20AE20AF20AE8CFDF91E3
:10455000CF911F910F91FF90EF90DF90CF90BF9080
:10456000AF909F908F9008958F929F92AF92BF923D
:10457000CF92DF92EF92FF92CF93DF93EC0169012C
:104580007A0162B9CA01B90120E130E040E050E0AF
:104590000E94DD55812C912C540182169306A406AD
:1045A000B5060CF0A6C1EA89FB8990818F8D8095B4
:1045B00089238083EA89FB8980819F8D892B808371
:1045C000EA89FB8990818F8D809589238083EA8990
:1045D000FB8980819F8D892B8083EA89FB8990816B
:1045E0008F8D809589238083EA89FB8980819F8DC7
:1045F000892B8083EA89FB8990818F8D809589231F
:104600008083EA89FB8980819F8D892B8083EA8959
:10461000FB8990818F8D809589238083EA89FB892E
:1046200080819F8D892B8083EA89FB8990818F8D82
:10463000809589238083EA89FB8980819F8D892BDE
:104640008083EA89FB8990818F8D8095892380837F
:10465000EA89FB8980819F8D892B8083EA89FB8988
:1046600090818F8D809589238083EA89FB89808161
:104670009F8D892B8083EA89FB8990818F8D80951E
:1046800089238083EA89FB8980819F8D892B8083A0
:10469000EA89FB8990818F8D809589238083EA89BF
:1046A000FB8980819F8D892B8083EA89FB8990819A
:1046B0008F8D809589238083EA89FB8980819F8DF6
:1046C000892B8083EA89FB8990818F8D809589234E
:1046D0008083EA89FB8980819F8D892B8083EA8989
:1046E000FB8990818F8D809589238083EA89FB895E
:1046F00080819F8D892B8083EA89FB8990818F8DB2
:10470000809589238083EA89FB8980819F8D892B0D
:104710008083EA89FB8990818F8D809589238083AE
:10472000EA89FB8980819F8D892B8083EA89FB89B7
:1047300090818F8D809589238083EA89FB89808190
:104740009F8D892B8083EA89FB8990818F8D80954D
:1047500089238083EA89FB8980819F8D892B8083CF
:10476000EA89FB8990818F8D809589238083EA89EE
:10477000FB8980819F8D892B8083EA89FB899081C9
:104780008F8D809589238083EA89FB8980819F8D25
:10479000892B8083EA89FB8990818F8D809589237D
:1047A0008083EA89FB8980819F8D892B8083EA89B8
:1047B000FB8990818F8D809589238083EA89FB898D
:1047C00080819F8D892B8083EA89FB8990818F8DE1
:1047D000809589238083EA89FB8980819F8D892B3D
:1047E0008083EA89FB8990818F8D809589238083DE
:1047F000EA89FB8980819F8D892B8083EA89FB89E7
:1048000090818F8D809589238083EA89FB898081BF
:104810009F8D892B8083EA89FB8990818F8D80957C
:1048200089238083EA89FB8980819F8D892B8083FE
:10483000EA89FB8990818F8D809589238083EA891D
:10484000FB8980819F8D892B8083EA89FB899081F8
:104850008F8D809589238083EA89FB8980819F8D54
:10486000892B8083EA89FB8990818F8D80958923AC
:104870008083EA89FB8980819F8D892B8083EA89E7
:10488000FB8990818F8D809589238083EA89FB89BC
:1048900080819F8D892B8083EA89FB8990818F8D10
:1048A000809589238083EA89FB8980819F8D892B6C
:1048B0008083EA89FB8990818F8D8095892380830D
:1048C000EA89FB8980819F8D892B8083EA89FB8916
:1048D00090818F8D809589238083EA89FB898081EF
:1048E0009F8D892B80838FEF881A980AA80AB80AAF
:1048F00054CEB701A6014F70552766277727452B61
:10490000462B472B81F1C701B60120E130E040E0A2
:1049100050E00E94DD55C12CD12C76016C157D052F
:104920008E059F0504F1EA89FB8930812F8D209542
:1049300023232083EA89FB8920813F8D232B208339
:10494000EA89FB8930812F8D209523232083EA89F2
:10495000FB8920813F8D232B20832FEFC21AD20A9F
:10496000E20AF20ADBCFDF91CF91FF90EF90DF9068
:10497000CF90BF90AF909F908F9008954F925F928D
:104980006F927F92AF92BF92CF92DF92EF92FF929F
:104990000F931F93CF93DF93CDB7DEB7C45AD109DE
:1049A0000FB6F894DEBF0FBECDBF5C0180E4ECE92A
:1049B000F5E0DE01AF5BBF4F01900D928A95E1F704
:1049C00080E4ECEDF5E0DE01119601900D928A9500
:1049D000E1F780E2ECE1F6E0DE01AF57BF4F019076
:1049E0000D928A95E1F7862F90E0FE01EF5BFF4F75
:1049F000DC01AA0FBB1FEA0FFB1F0190F081E02D25
:104A00002F01612C712CF5014582568267827086D8
:104A1000E1E0F0E0EC0FFD1FAE0FBF1F4D905C908A
:104A2000612C712CD50119964D925D926D927C92FC
:104A30001C97E1E8F0E0EC0FFD1FE80FF91F808103
:104A40001E968C931E971D966C931D9795964C936E
:104A5000959796962C93969797960C9397979896EA
:104A6000EC9298979996CC929997843031F491E092
:104A70001E969C931E971F968C93F5018685853014
:104A800019F491E096878787D5011E966C91613065
:104A900009F4BEC0C501CD55DF4F2883C35AD040AD
:104AA000CC55DF4F3883C45AD040CF55DF4F4883B1
:104AB000C15AD040CE55DF4F5883C25AD04012DC85
:104AC000CF55DF4F4881C15AD040842FCE55DF4F9C
:104AD0005881C25AD040952FFC01E852FE4CE49117
:104AE000F0E0EE0FFF1FE25EFD4C45915491F501A1
:104AF000518B408BFC01EE56FE4C8491D5015E96A5
:104B00008C93CD55DF4F2881C35AD040822FCC558E
:104B1000DF4F3881C45AD040932FFC01E852FE4C3D
:104B2000E491F0E0EE0FFF1FE25EFD4C2591349121
:104B3000F501338B228BFC01EE56FE4C8491D5019E
:104B40005F968C93C801F801E852FE4CE491F0E0C6
:104B5000EE0FFF1FE25EFD4C25913491F501358B80
:104B6000248BFC01EE56FE4C8491D50190968C93DB
:104B7000F701E852FE4CE491F0E0EE0FFF1FE25E19
:104B8000FD4C85919491F501978B868BF701EE563C
:104B9000FE4CE491D5019196EC9391971E968C91E1
:104BA000813109F0AEC0F601E852FE4CE491F0E02C
:104BB000EE0FFF1FE25EFD4CA591B491F501B58F9C
:104BC000A48FF601EE56FE4C8491F50184A39C91CE
:104BD000809598239C9361E088E00E94724E60E08B
:104BE00088E0CC55DF4F0FB6F894DEBF0FBECDBFC7
:104BF000DF91CF911F910F91FF90EF90DF90CF90B9
:104C0000BF90AF907F906F905F904F900C94AB4EA1
:104C1000CA01FA01E852FE4CE491F0E0EE0FFF1FEA
:104C2000E25EFD4C45915491D50159965C934E93AB
:104C30005897FC01EE56FE4C8491F50182A3C90100
:104C4000F901E852FE4CE491F0E0EE0FFF1FE25E46
:104C5000FD4C25913491D5015B963C932E935A9748
:104C6000FC01EE56FE4C8491F50183A3F801E85255
:104C7000FE4CE491F0E0EE0FFF1FE25EFD4C25914B
:104C80003491D50155963C932E935497F801EE56E6
:104C9000FE4C8491F50180A3FFEFEF16F104B9F00B
:104CA000F701E852FE4CE491F0E0EE0FFF1FE25EE8
:104CB000FD4C85919491D50157969C938E93569770
:104CC000F701EE56FE4CE491D5019196EC93F50177
:104CD00087858430B1F0F601E852FE4CE491F0E0B3
:104CE000EE0FFF1FE25EFD4C25913491D5015196E8
:104CF0003C932E935097F601EE56FE4C8491F501AD
:104D0000868FCC55DF4F0FB6F894DEBF0FBECDBFF8
:104D1000DF91CF911F910F91FF90EF90DF90CF9097
:104D2000BF90AF907F906F905F904F900895462F07
:104D3000DC011E962C911E97213071F05096ED915A
:104D4000FC91519730815E962C915E97209523239C
:104D500020831E962C9101C021E060E014C91F93AE
:104D6000CF93DF93EC01142F8E85813041F0E889D9
:104D7000F98980819E8D892B80832E8508C021E052
:104D8000462F61E0CE01FFD82E85412F61E0CE0194
:104D9000DF91CF911F91F7C8462FDC011E962C9111
:104DA0001E97213071F05096ED91FC915197208122
:104DB0005E963C915E97232B20831E962C9160E09B
:104DC00002C021E061E0DFC80F931F93CF93DF9310
:104DD0001F921F92CDB7DEB78C0149835A83A7DF9C
:104DE00049815A81652FC8010F900F90DF91CF91B3
:104DF0001F910F91B4CF6F927F928F929F92AF923B
:104E0000BF92CF920F931F93CF93DF93EC015B017F
:104E10003A0149018C81813059F489859A859C0138
:104E2000261B370B88199909480189015A013C0151
:104E3000CD848C2D90E08032910508F02BC1FC01CF
:104E4000EF57FF4F0C94F9554B2D50E062E0CE0127
:104E5000BBDFA50163E0CE01B7DF492D50E064E080
:104E6000CE01B2DFA40165E0CE01AEDF472D50E0F8
:104E700066E0CE01A9DFA30167E0CE01A5DF412FE7
:104E800050E071C06AE2CE0152DF4B2D60E0CE01EE
:104E900066DF4A2D60E0CE0162DF492D60E0CE0181
:104EA0005EDF482D60E0CE015ADF6BE2CE013FDFCE
:104EB000472D60E0CE0153DF462D60E0CE014FDF8D
:104EC000412F60E0CE014BDF402F60E0CE0147DF95
:104ED000D3C0582D44274A0D5B1D64E4CE0174DF16
:104EE000A30165E4CE0170DFA80166E4CE016CDFAA
:104EF000A5016EE4CE0168DFA3016FE489C0A501BE
:104F000060E2CE0161DFA30161E2CE015DDFA501B8
:104F100060E5CE0159DFA30162E5CE0155DFA401B2
:104F200061E5CE0151DFA80163E572C040E050E0C9
:104F300062E0CE0149DFA50163E0CE0145DF40E03C
:104F400050E064E0CE0140DFA40165E0CE013CDF2B
:104F500040E050E066E0CE0137DFA30167E0CE011C
:104F600033DF40E050E068E0CE012EDFA80169E0C9
:104F70004FC06AE2CE01DBDE6A2DCE010DDF682D67
:104F8000CE010ADF6BE2CE01D2DE662D70C06AE28E
:104F9000CE01CDDE672DCE01FFDE662DCE01FCDE1B
:104FA000612FCE01F9DE602FCE01F6DE6BE2CE017D
:104FB000BEDE6B2DCE01F0DE6A2DCE01EDDE692D59
:104FC000CE01EADE682D56C0582D44274A295B29B8
:104FD00066E4CE01F9DEA80167E4CE01F5DEA301A7
:104FE00068E40EC0A40166E3CE01EEDEA50167E32E
:104FF000CE01EADEA80168E3CE01E6DEA30169E3A3
:10500000CE01E2DEA50160E2CE01DEDEA30161E2B7
:10501000CE01DADE62E231C0A30162E0CE01D4DE6D
:10502000A50163E0CE01D0DEA80166E0CE01CCDEB2
:10503000A40167E0CE01C8DE6FE01FC06AE2CE01C6
:1050400076DE6B2DCE01A8DE6A2DCE01A5DE692DA0
:10505000CE01A2DE682DCE019FDE6BE2CE0167DEBF
:10506000672DCE0199DE662DCE0196DE612FCE0131
:1050700093DE602FCE0190DE6CE2CE01DF91CF9106
:105080001F910F91CF90BF90AF909F908F907F9086
:105090006F904DCEDF91CF911F910F91CF90BF9028
:1050A000AF909F908F907F906F9008950F931F9374
:1050B000CF93DF93EC016C8361E08DA10E94724E6F
:1050C00061E08EA10E94724E61E08FA10E94724E3B
:1050D00088A58F3F19F061E00E94724E8E85813164
:1050E00029F0813039F48F85853021F461E089A57C
:1050F0000E94724E6E85613011F0CE01F3D8EE89B8
:10510000FF89808199A1892B808365E070E080E030
:1051100090E00E94984DEE89FF89908189A1809549
:10512000892380836FE070E080E090E00E94984DDA
:10513000EE89FF89808199A1892B80836FE070E0DF
:1051400080E090E00E94984DEC89FD89908188A1D3
:105150008095892380834D8550E04032510510F0C1
:105160000C949C42FA01EF55FF4F0C94F95544EA18
:1051700050E066E4CE0128DE43E550E067E4CE016E
:1051800023DE40E050E068E4CE011EDE44E450E05F
:1051900069E4CE0119DE44E050E06AE4CE0114DE99
:1051A00047E650E06BE4CE010FDE43E350E06CE4F1
:1051B000CE010ADE47E750E06DE4CE0105DE42E1B4
:1051C00050E06EE4CE0100DE4CE450E06FE4CE012E
:1051D000FBDD46E450E060E5CE01F6DD44E450E05E
:1051E00061E5CE01F1DD40E050E062E0CE01ECDDB2
:1051F00040E050E063E0CE01E7DD40E050E064E0F5
:10520000CE01E2DD4FEE50E065E0CE01DDDD40E0B5
:1052100050E066E0CE01D8DD40E050E067E0CE012E
:10522000D3DD41E050E068E0CE01CEDD4FE350E059
:1052300069E0CE01C9DD46E050E061E0CE01C4DDA9
:1052400048EC50E066E1CE01BFDD45E950E063E2A5
:10525000CE01BADD45E950E064E2CE01B5DD4FEFA5
:1052600050E065E2CE01B0DD42E050E067E2CE0101
:10527000ABDD42E050E068E2CE01A6DD42E050E066
:1052800069E2CE01A1DD42E050E06AE2CE019CDDA0
:1052900042E050E06CE2CE0197DD42E050E06DE28A
:1052A000CE0192DD41E050E06AE3CE018DDD40E0C9
:1052B00050E06BE3CE0188DD40EF50E06CE3CE01BF
:1052C00083DD40E050E06DE3CE017EDD61E070E023
:1052D00080E090E00E94984D48E350E065E3CE0105
:1052E00073DD48E750E066E3CE016EDD48E350E051
:1052F0006EE3CE0169DD4FE050E060E4CE0164DD95
:1053000040EF50E061E4CE015FDD49E450E069E147
:10531000CE015ADD4FE050E063E9CE0155DD61E09A
:1053200070E080E090E00E94984D40E450E060E240
:10533000CE014ADD47E050E06DE1CE0145DD40E0C1
:1053400050E06EE1CE0140DD44E050E06FE1CE017F
:105350003BDD4DE450E064E4CE0136DD4EE050E04C
:1053600065E4CE0131DD61E070E080E090E00E9414
:10537000984D44E050E06CE1CE0126DD62E070E043
:1053800080E090E00E94984D48E150E06BE1CE0152
:105390001BDD61E070E080E090E00E94984D40E10C
:1053A00050E06BE1CE0110DD61E070E080E090E064
:1053B0000E94984D40E850E063E4CE0105DD62E0D4
:1053C00070E080E090E00E94984D4FE750E060E987
:1053D000CE01FADC44E050E066E2CE01F5DC61E0AB
:1053E00070E080E090E00E94984D44E250E066E278
:1053F000CE01EADC4CE250E066E2CE01E5DC61E0A1
:1054000070E080E090E00E94984D4CE350E066E24E
:10541000CE01DADC42E050E067E5CE01D5DC41E0C8
:1054200050E065E9CE01D0DC40E050E067E5B4C172
:1054300069EECE017CDC40E260E0CE0190DC61E10F
:10544000CE0175DC64E670E080E090E00E94984D4B
:1054500061EDCE016CDC40E060E0CE0180DC41E734
:1054600060E0CE017CDC49E160E0CE0178DC60EDFB
:10547000CE015DDC47E060E0CE0171DC41E060E040
:10548000CE016DDC48E060E0CE0169DC66E3CE0170
:105490004EDC48E460E0CE0162DC6AE3CE0147DC2A
:1054A00045E060E0CE015BDC61ECCE0140DC40E138
:1054B00060E0CE0154DC40E160E0CE0150DC42E02F
:1054C00060E0CE014CDC42E060E0CE0148DC60EC04
:1054D000CE012DDC40E060E0CE0141DC45E360E040
:1054E000CE013DDC40E060E0CE0139DC40E060E030
:1054F000CE0135DC41E060E0CE0131DC42E060E02D
:10550000CE012DDC65ECCE0112DC44E060E0CE0182
:1055100026DC62EDCE010BDC41E060E0CE011FDC59
:1055200044E460E0CE011BDC68ECCE0100DC44E02A
:1055300060E0CE0114DC47E660E0CE0110DC45E31C
:1055400060E0CE010CDC44E060E0CE0108DC48E025
:1055500060E0CE0104DC46E060E0CE0100DC44E225
:1055600060E0CE01FCDB41E060E0CE01F8DB47E328
:1055700060E0CE01F4DB40E460E0CE01F0DB43E02C
:1055800060E0CE01ECDB40E160E0CE01E8DB48E02A
:1055900060E0CE01E4DB40E860E0CE01E0DB40E02B
:1055A00060E0CE01DCDB6AE2CE01C1DB40E060E01E
:1055B000CE01D5DB40E060E0CE01D1DB40E060E031
:1055C000CE01CDDB4FEE60E0CE01C9DB6BE2CE0158
:1055D000AEDB40E060E0CE01C2DB40E060E0CE0147
:1055E000BEDB41E060E0CE01BADB4FE860E0CE0117
:1055F000B6DB69E2CE019BDB6CE2CE0198DB0C945A
:105600009C4241E050E060E0CE01DEDB44EA58EA33
:1056100063E0CE01D9DB40E050E06CE0CE01D4DBAA
:105620004CE058E06DE0CE01CFDB40E05BE26EE0A5
:10563000CE01CADB47EB50E06EE1CE01C5DB4FE3A4
:105640005BE261E0CE01C0DB40E056E062E0CE010B
:10565000BBDB40E050E060E1CE01B6DB40E750E666
:1056600061E1CE01B1DB40E050E065E0CE01ACDBB2
:1056700040E050E066E0CE01A7DB4CE15FEE66E182
:10568000CE01A2DB43E050E067E1CE019DDB43E3C6
:1056900052E067E0CE0198DB40E050E06BE0CE01E5
:1056A00093DB40E050E06FE0CE018EDB40E050E065
:1056B00061E4CE0189DB40E050E062E4CE0184DBAE
:1056C00040E050E068E4CE017FDB4FE351E069E465
:1056D000CE017ADB40E050E06AE4CE0175DB40E0C9
:1056E00050E06BE4CE0170DB40E05FEE64E4CE019D
:1056F0006BDB40E050E065E4CE0166DB4FE351E058
:1057000066E4CE0161DB47E057E060E3CE015CDB9D
:1057100044E052E061E3CE0157DB44E052E062E353
:10572000CE0152DB42E055E063E3CE014DDB47E0C2
:1057300055E064E3CE0148DB44E052E065E3CE018E
:1057400043DB44E052E066E3CE013EDB42E055E05D
:1057500067E3CE0139DB42E053E06AE3CE0134DB9C
:1057600042E053E06BE3CE012FDB40E050E063E228
:10577000CE012ADB40E050E064E2CE0125DB40E0D0
:1057800050E865E2CE0120DB40E050E06FE4CE015E
:105790001BDB40E050E06EE4CE0116DB62E22DCF71
:1057A00040EF58E765EECE010FDB40E051E061E0ED
:1057B000CE010ADB40E057E062E0CE0105DB40E3CA
:1057C00050E163E0CE0100DB40E050E064E0CE0158
:1057D000FBDA47E052E068E0CE01F6DA40E050E064
:1057E00069E0CE01F1DA40E050E06AE0CE01ECDAA7
:1057F00040E050E06CE0CE01E7DA40E050E06DE0E0
:10580000CE01E2DA40E050E06FE0CE01DDDA40E0C8
:1058100050E060E1CE01D8DA47E050E061E1CE012E
:10582000D3DA40E050E062E1CE01CEDA40E050E071
:1058300063E1CE01C9DA41E050E067E0CE01C4DAAD
:1058400068EC70E080E090E00E94984D40E950E103
:1058500060E1CE01B9DA47E252E061E1CE01B4DAAB
:1058600062E370E080E090E00E94984D4FE150E0EC
:1058700062E1CE01A9DA62E370E080E090E00E948C
:10588000984D40E055E163E1CE019EDA47E250E0F9
:1058900069E2CE0199DA4DE050E06BE2CE0194DA94
:1058A00062E370E080E090E00E94984D40E050E0BC
:1058B00060E2CE0189DA40E050E061E2CE0184DAB4
:1058C00040E050E060E3CE017FDA47E057E061E37B
:1058D000CE017ADA47E053E062E3CE0175DA40E0C8
:1058E00052E065E3CE0170DA48E050E066E3CE01B5
:1058F0006BDA44E050E067E3CE0166DA40E050E066
:1059000068E3CE0161DA47E057E069E3CE015CDA93
:1059100042E050E06CE3CE0157DA44E05DE16DE334
:10592000CE0152DA40E050E060E5CE014DDA4FEEB4
:1059300050E061E5CE0148DA40E050E062E5CE019A
:1059400043DA4FE351E063E5CE013EDA40E057EA47
:1059500060E6CE0139DA41E050E061E6CE0134DAAA
:1059600040E050E06AE6CE012FDA40E050E060E827
:10597000CE012ADA40E050E061E8CE0125DA40E0CD
:1059800050E062E8CE0120DA40E050E063E8CE016A
:105990001BDA40E050E064E8CE0116DA40E050E067
:1059A00065E8CE0111DA40E150E060E9CE010CDAA1
:1059B00040E056E00AC140EF58E765EECE0104DA58
:1059C00040E051E061E0CE01FFD940E052E062E00A
:1059D000CE01FAD940E350E163E0CE01F5D940E0D1
:1059E00050E064E0CE01F0D947E052E068E0CE013B
:1059F000EBD940E050E069E0CE01E6D940E050E06C
:105A00006AE0CE01E1D940E050E06CE0CE01DCD9A3
:105A100040E050E06DE0CE01D7D940E050E06FE0CB
:105A2000CE01D2D940E050E060E1CE01CDD947E0CF
:105A300050E061E1CE01C8D940E050E062E1CE0122
:105A4000C3D940E050E063E1CE01BED941E050E06F
:105A500067E0CE01B9D968EC70E080E090E00E9488
:105A6000984D40E956E160E1CE01AED947E252E0FF
:105A700061E1CE01A9D962E370E080E090E00E948C
:105A8000984D4DE050E062E1CE019ED962E370E0B6
:105A900080E090E00E94984D40E052E163E1CE0149
:105AA00093D94AE050E069E2CE018ED94DE050E052
:105AB0006BE2CE0189D962E370E080E090E00E9461
:105AC000984D40E050E060E2CE017ED940E050E0E9
:105AD00061E2CE0179D940E050E060E3CE0174D9B3
